:040000006F209003DA
:10000400000000000000000090000020EC0A002026
:10001400A9BDF9F5900000200000000000000000D8
:10002400900000209000002000000000000000006C
:10003400900000200000000090000020000000005C
:100044009000002090000020220D0020900000204D
:1000540090000020900000209000002090000020DC
:1000640090000020900000209000002090000020CC
:10007400E00B002090000020900000209000002061
:1000840090000020900000209000002090000020AC
:1000940001A04111814601468145114506C6EF0084
:1000A4001056B727004011472383E780B7F700E0D5
:1000B40003A707D16D9B23A8E7D003A707D15D9BB6
:1000C40023A8E7D07300501001000100B2404101A1
:1000D40082804111814601468145114506C6EF00E3
:1000E4001052B727004011472383E780B717004019
:1000F40003C7E70203C6E70483D787039166137730
:10010400F70F1366360063E5D700719B136717007A
:10011400F3260080A18A9387018489CAF32600808C
:1001240023A0D1849443DD9A7390068001000100DA
:10013400B7160040930570052380B604930580FA32
:100144002380B604010001002382060223800604F2
:10015400F32500809443A18ACD8E7390068023A05A
:10016400018401000100F3260080A18A89CAF326D4
:10017400008023A0D1849443DD9A7390068001000B
:100184000100B7160040930570052380B60493055B
:1001940080FA2380B604010001002387E602238746
:1001A400C60423800604F32600809843218B558FD0
:1001B4007310078023A001840100010073270080CD
:1001C400218B09CB7327008023A0E18498435D9B96
:1001D4007310078001000100371700409306700573
:1001E4002300D704930680FA2300D70401000100FA
:1001F4008346B70493E60602A305D7042300070445
:10020400F32600809843218B558F7310078023A019
:1002140001840100010037F700E0832607D193E64B
:1002240046002328D7D0832607D1DD9A2328D7D0A8
:10023400730050100100010073270080218B09CB4B
:100244007327008023A0E18498435D9B731007808B
:100254000100010037170040930670052300D704FE
:10026400930680FA2300D704010001008346B704F3
:1002740093F6F60DA305D704230007047327008023
:100284009C43A18BD98F7390078023A00184010024
:100294000100B240410182800111B7F5070026CA6E
:1002A40081460A86AA84E105194506CE22CC4AC8AD
:1002B40002C023120100EF00903437170040834737
:1002C400E7028346E70403578703116693F7F70FA2
:1002D40093E636006365C700F19B93E71700732725
:1002E4000080218B1384018409CB7327008023A011
:1002F400E18418405D9B73100780010001003717EB
:100304000040130670052300C704130680FA230077
:10031400C704010001002302070223000704732617
:1003240000801840218B518F7310078023A0018413
:100334000100010073270080218B09CB7327008003
:1003440023A0E18418405D9B731007800100010025
:1003540037170040130670052300C704130680FAFC
:100364002300C704010001002307F7022307D70471
:1003740023000704F32600801C40A18BD58F7390C3
:10038400078023A0018401000100B7F600E083A7E1
:1003940006D193E7470023A8F6D003550702E57773
:1003A400910713750560458D5D8D420541810100FE
:1003B400F3270080A18B89CBF327008023A0F1844D
:1003C4001C40DD9B7390078001000100B7170040BB
:1003D400130770052380E704130780FA2380E704DA
:1003E4000100010003C7F70013670704A387E700B0
:1003F40003C7B70413670702A385E7042390A70282
:1004040023800704732700801C40A18BD98F73902D
:10041400078023A0018401000100B7F4070037F925
:1004240000E0E104832709D1DD9B2328F9D0730080
:100434005010010001001305C012EF00007781463F
:100444003000A685194502C423160100EF00301BB5
:1004540022478247E318F7FCF3270080A18B89CB5E
:10046400F327008023A0F1841C40DD9B7390078058
:1004740001000100B7170040130770052380E7044B
:10048400130780FA2380E7040100010003C7B704BF
:100494001377F70DA385E7042380070473270080EF
:1004A4001C40A18BD98F7390078023A00184010085
:1004B40001005145DD2DF2406244D24442490561B8
:1004C4008280411126C281460146AA848145114594
:1004D40006C622C4EF00B012371700408347E70274
:1004E4008346E70403578703116693F7F70F93E6F0
:1004F40036006365C700F19B93E7170073270080FC
:10050400218B1384018409CB7327008023A0E18409
:1005140018405D9B731007800100010037170040ED
:10052400130670052300C704130680FA2300C704CA
:100534000100010023020702230007047326008040
:100544001840218B518F7310078023A00184010070
:10055400010073270080218B09CB7327008023A01F
:10056400E18418405D9B7310078001000100371778
:100574000040130670052300C704130680FA230005
:10058400C704010001002307F7022307D70423004F
:100594000704732700801C40A18BD98F73900780B8
:1005A40023A001840100010013055002A12237F7A2
:1005B40000E0832707D193E747002328F7D0F327E8
:1005C4000080A18B89CBF327008023A0F1841C40F9
:1005D400DD9B7390078001000100B71700401307EB
:1005E40070052380E704130780FA2380E7040100E1
:1005F400010003C7F70013670704A387E7002380FC
:100604000704732700801C40A18BD98F7390078047
:1006140023A0018401000100F3270080A18B89CB72
:10062400F327008023A0F1841C40DD9B7390078096
:1006340001000100B7170040130770052380E70489
:10064400130780FA2380E704010001002567D98C91
:100654002390970223800704732700801C40A18BFA
:10066400D98F7390078023A001840100010037F71C
:1006740000E0832707D1DD9B2328F7D073005010B7
:10068400010001008146014681451145EF002077B4
:10069400F3270080A18B89CBF327008023A0F1846A
:1006A4001C40DD9B7390078001000100B7170040D8
:1006B400130770052380E704130780FA2380E704F7
:1006C4000100010003C76704136717002383E704CD
:1006D40023800704732700801C40A18BD98F73905B
:1006E400078023A0018401000100B2402244924407
:1006F4004101828073270080218B9387018409CB79
:100704007327008023A0E18498435D9B73100780C6
:100714000100010037170040930670052300D70439
:10072400930680FA2300D704010001008346B7042E
:1007340093F6F60DA305D70423000704732600805F
:100744009443A18AD18E7390068023A00184010072
:10075400010093760502638406180347A700118BF2
:1007640025E773270080218B09CB7327008023A002
:10077400E18498435D9B73100780010001003717E3
:100784000040930670052300D704930680FA2300E3
:10079400D704010001008346A70093E64600230521
:1007A400D70023000704F32600809843218B558F3C
:1007B4007310078023A00184010001001307004B7C
:1007C400010001007D176DFF73270080218B09CB89
:1007D4007327008023A0E18498435D9B73100780F6
:1007E4000100010037170040930670052300D70469
:1007F400930680FA2300D704010001007D892314A5
:10080400A700010001000100010023000704F326F2
:1008140000809843218B558F7310078023A0018497
:100824000100010073270080218B09CB732700800E
:1008340023A0E18498435D9B7310078001000100AD
:1008440037170040930670052300D704930680FAF7
:100854002300D7040100010001000100B726004075
:1008640013061005A383C68023000704F326008023
:100874009843218B558F7310078023A001840100B6
:10088400010073270080218B09CB7327008023A0EC
:10089400E18498435D9B73100780010001003717C2
:1008A4000040930670052300D704930680FA2300C2
:1008B400D704010001008346B70493E60608A305A4
:1008C400D70423000704732700809C43A18BD98F8E
:1008D4007390078023A00184010001008280937635
:1008E4000504638B06140347A700418B25E7732790
:1008F4000080218B09CB7327008023A0E1849843D7
:100904005D9B7310078001000100371700409306B8
:1009140070052300D704930680FA2300D70401004E
:1009240001008346A70093E606012305D7002300B0
:100934000704F32600809843218B558F731007809A
:1009440023A00184010001001307007D01000100C0
:100954007D176DFF73270080218B09CB73270080DF
:1009640023A0E18498435D9B73100780010001007C
:1009740037170040930670052300D704930680FAC6
:100984002300D704010001009376F50193E60604E1
:100994002314D70001000100010001002300070413
:1009A400F32600809843218B558F7310078023A072
:1009B400018401000100130760046310E504732738
:1009C4000080218B09CB7327008023A0E184984306
:1009D4005D9B7310078001000100371700409306E8
:1009E40070052300D704930680FA2300D70401007E
:1009F4000100B72600400946B5B573270080218B56
:100A040009CB7327008023A0E18498435D9B731076
:100A1400078001000100371700409306700523008A
:100A2400D704930680FA2300D70401000100B726F7
:100A34000040130620053DB573270080218B09CBA8
:100A44007327008023A0E18498435D9B7310078083
:100A54000100010037170040930670052300D704F6
:100A6400930680FA2300D70401000100835687000F
:100A740093E6060C2314D700C5BB411181460146F9
:100A84008145114506C6A52EF3270080A18B9386C8
:100A9400018489CBF327008023A0F1849C42DD9B51
:100AA4007390078001000100B71700401307700519
:100AB4002380E704130780FA2380E7040100010080
:100AC40003C76704136717002383E704238007041D
:100AD400732700809C42A18BD98F7390078023A039
:100AE400018401000100B240410182808146014637
:100AF400814511452926F3270080A18B13870184A2
:100B040089CBF327008023A0F1841C43DD9B7390E1
:100B1400078001000100B717004093067005238089
:100B2400D704930680FA2380D70401000100FD5600
:100B34002396D70223800704F32600801C43A18B4D
:100B4400D58F7390078023A0018401000100F3274F
:100B54000080A18B89CBF327008023A0F1841C4360
:100B6400DD9B7390078001000100B71700409306D6
:100B740070052380D704930680FA2380D7040100EC
:100B8400010083C6670493E616002383D7042380F9
:100B94000704F32600801C43A18BD58F7390078034
:100BA40023A001840100010001A0BD473305F50223
:100BB40001007D1575FD8280411122C426C206C63E
:100BC400AA84014463179400B24022449244410130
:100BD400828005041305803E4204C13F4180DDB795
:100BE400B7170040130700032388E702854723A4AF
:100BF400F18473002030411106C6856601468145A3
:100C04000545F52A7DF98146014681451145C52AE8
:100C1400B7170040130770052380E704130780FA11
:100C24002380E704010001007D572396E70203C7F0
:100C34006704136717002383E7042380070401A0D4
:100C4400411197270000938767D322C42E848C43D5
:100C540006C6973002E0E780A060974002E0E78094
:100C6400208993070002635605003305A0409307CB
:100C7400D00229472300F400B367E502B24093870A
:100C840007032302F4009307E002A301F400B3472F
:100C9400E502B3E7E702938707032301F400930710
:100CA40040063345F5023365E50213050503A30049
:100CB400A400224441018280173300E0670023F43A
:100CC40001116C00280006CE22CC973000E0E780AA
:100CD400C0FA224597250000938555B617240000D5
:100CE400130444B5B13F32459307300497250000FF
:100CF400938535B52307F400A13793078004A286B2
:100D0400554685450145230AF400978000E0E780B5
:100D1400A099F240624405618280411106C66925AA
:100D2400FDBFB717004003D7E709418B19C74147F7
:100D3400239FE708C935730020307D57239FE708B8
:100D4400DDBF2303048015472303E480010023024D
:100D5400A480828083076480E3CE07FE230304809B
:100D6400828083076480E3CE07FE0345448082804B
:100D740083076480E3CE07FE2302A48082804111AE
:100D840026C44AC24EC006C61377F50BAD47AA89DE
:100D94002E8995446306F70019456537653F8D44F0
:100DA4004E854537FD59FD1463983401B240A24481
:100DB4001249824941018280135509011375F50FC7
:100DC400453F2209CDB7011126CC06CEB704080051
:100DD40051371545BD37713769372AC6A53F3245A6
:100DE4009377150089EB136515001375F50FF24021
:100DF400E24405618280FD14E9FC0145CDBF3971EF
:100E040026DC4ADA4ED852D656D45AD25ED006DE02
:100E140062CE66CCB7E700E07D5783AA070022C6FE
:100E240003AA470023A0E71823A2E718B717004036
:100E3400130770052380E704130780FA2380E7046F
:100E440083C74704930B75FFB684E20793FBFB0F3C
:100E54008546AA892E8B328937240040E1870157C1
:100E640063FA76016308D500894613070002631309
:100E7400D5000157D98F93F7F70FB71C0040238291
:100E8400FC0411472303E4801305F00F5D3D094C76
:100E9400D135636D7C11B7050700DA9537870700F4
:100EA400795563F2E504B3879500636EF702370B57
:100EB4000800A94733EB65016399F90689E4814485
:100EC400513D26850DA0DA850945553D05090345A3
:100ED400F9FFFD14050B693D81C49377FB0FFDF702
:100EE400DD3569FD7D55B717004013077005238074
:100EF400E704130780FA2380E70403C74704418B00
:100F04002382E704F250B7E700E023A0571123A29D
:100F14004711E25432445259C259325AA25A125B0E
:100F2400825B724CE24C21618280A5476395F9068D
:100F340085691309F00FB3069900B3742B01B694B5
:100F44001349F9FFB3749900856B33796901416BD7
:100F54009387F9FFB3F7270199E363FC340193D92D
:100F64004900C147E3E637FF99BF0569C1697D19A7
:100F7400D9B71305800D63886901130500026384E2
:100F8400790113051008CA85DD3B353D21DD4E99F5
:100F9400B3843441D9B7DA852D45D533CA94E300F7
:100FA40099F205097D3BA30FA9FED5BF9387F9FFED
:100FB40093F7F70F6361FC0C83C71C041307300815
:100FC400631FF70437070800636BEB04B3079B0048
:100FD400B706100063F5D704334BEB0089476393DE
:100FE400F9068980D549E38C04ECDA850945413B4F
:100FF40011090327C9FF91472320E4800307648074
:10100400E34E07FE23033481FD17EDFBFD14110BA2
:1010140081C49377FB0FE9FF7D3371F5E1B5B71711
:10102400004003C75704B70708001377070219E302
:10103400B78707007955E378FBEA33079B00E3FFA2
:10104400E7F855B58547E382F9F2DA852D45053B86
:101054009389F4FFE38504E6293393F7390091EB90
:10106400832604800327090093074900E39AE6E4F2
:101074003E89CE84F1BFB5476396F9001305900B02
:10108400C93135BDB1471305B00AE38BF9FE994761
:101094006391F904B7050800B365BB002D45C5315C
:1010A40081448D4BA149753963967401832704806B
:1010B4002320F9008504E39834FF83270480131761
:1010C4002B01635507002312F900D5BB2322F90035
:1010D400FDB39D476399F90281451305B004453179
:1010E400BD442320090023220900FD599D3993F7AB
:1010F4007400CA9703C70700FD14398D2380A70025
:10110400E39634FF6DBBA1476392F9046D398144C2
:10111400630D0B008D479304C0036308FB00930425
:10112400000563048B01930440041375C507E308A9
:1011340095D81945393139390545213126850D3977
:1011440009453D314931E31C05D669BB9147639993
:10115400F90013056006F536F53E130590090DB741
:10116400E38F09D4F154A9BB19CD91CD09CE8147A0
:101174003387F500834607003307F500850723000E
:10118400D700E317F6FE828019C991C909CA9105EF
:1011940083A7C5FF11057D16232EF5FEC5BF8280EA
:1011A40001C919C62A960505A30FB5FEE31DA6FEBF
:1011B400828081473307F5000307070019E33E8562
:1011C40082808507C5BF01112E8626CAAA841315FD
:1011D40006019305F004418122CC06CE32C6EF000D
:1011E400B0562A8401C53246A685BD3F2285F24009
:1011F4006244D24405618280854715C18DC105C210
:101204008147B306F5003387F50083C6060003471C
:1012140007006398E6008507E315F6FE85473E85DB
:1012240082808147EDBF9307F6FFBE952A9663132C
:10123400C5008280FD1583C715000505A30FF5FEC3
:10124400FDB7AA87014581CF09CE3E96850703C71E
:10125400F7FF6317B700E39BC7FE054582808280D2
:10126400014582807971973700009387E70A22D479
:10127400804306D626D24AD04ECE52CC56CA5AC83D
:101284005EC679C0B7C4C901014B97390000938980
:1012940029089384F437173A0000130A2A08973A66
:1012A4000000938A2A02173900001309690B835737
:1012B400240095E35C44631D0B0017370000232DC5
:1012C400F704832BC4002285EF0030555E84B9A84F
:1012D4002326FB00FDB783A7090082971C4433072C
:1012E400F5406376F500032749001D8F2A9763E2D2
:1012F400E4089737000023AF07FC83552400034517
:101304000400973000E0E780C0085C405844A1CB5B
:101314000C4403264900AE97BE8663E4B70063E439
:10132400C700B386C74014C4228B3A8449F0973768
:101334000000938727F99C4B09476372F706F91756
:10134400173700002328F7F8B25022549254025958
:10135400F249624AD24A424BB24B456182806317DA
:101364000B009737000023A9E7FAA1BF2326EB005F
:1013740089BF03274A0209CF63EFA7003385A7403B
:1013840083A70A016376F5009737000023A4A7F426
:10139400228B404461BF03274900BA97C5B79737EA
:1013A400000023A907F24DB7411122C417340000ED
:1013B400130404F41C4006C626C24AC091C782978F
:1013C4009737000023A607F29737000083C79712C8
:1013D400858B973400009384A41195C3973700003C
:1013E400A38A071083C774001547637AF700A12BFB
:1013F40083C77400F5178A07A2979C4382971C44FD
:1014040091C38297173900001309C9F00327090013
:1014140017360000034616EB9737000083C787EAA8
:1014240093961700BA9683D60600D5CE9737000058
:1014340083C747E963E3C70C97370000238407E8B1
:101444001C40639D07129737000083C7F70A91CFAA
:1014540083C7740093F7F70F89EB97370000A38DC8
:101464000708973001E0E78060C997370000938749
:1014740027EA9C436384071097370000938747EE5D
:10148400DC43173700002327F7E4E93B97370000D4
:101494009387C7E8DC53FDC317370000130787E2BF
:1014A400184B9737000083C7B7E86369F70C83C705
:1014B400740015476364F70C9737000083C7070867
:1014C400918BCDEF032609009736000083C696DF83
:1014D40063CCD70A2244B2409244024941011733F3
:1014E40000E06700E335850793F7F70F97360000B0
:1014F400238AF6DCE3E2C7F215BF86073E978355DD
:1015040007002310070097370000239107E097375F
:1015140000009387A7DD9C4317350000034585DA57
:1015240013172500BA979C4382979737000083D7F7
:10153400E7DD173700000347E7D893C7F7FF7D8D32
:1015440093171700032709003E97835707005D8D03
:101554002310A7009737000083C7C7D691C7850714
:10156400173700002300F7D617370000034787D545
:101574009737000083C717D5E370F7ECB2402244D5
:10158400924402494101828013971700329703570E
:1015940007006DF785072DBFAD6737C70040BD074E
:1015A4002326F7200F10000097370000938787D178
:1015B400C84F83278726BD66BD0693C7F7FF998367
:1015C4006A052326D7205D8D82804111B71700401C
:1015D400985F3AC6945F3247E39CE6FE3245410188
:1015E40082801305F00F82800111973700009387E2
:1015F400670022CC03A4070C26CA06CE2AC42EC632
:10160400854419E40145F2406244D2440561828074
:101614008347910003471400858B6304F70000445B
:10162400CDB719469305A10013052400F136E3183C
:1016340095FE0545C9BF17370000130767EA1C4329
:101644009306001094C301000100010001001C4333
:1016540023A007008346150003482500A20642087C
:10166400C29603480500C296034835006208C29634
:1016740094D78346550003486500A2064208C296E3
:1016840003484500C296034875006208C296D4D741
:10169400834695000348A500A2064208C296034863
:1016A4008500C2960348B5006208C29694DB83465F
:1016B400D5000348E500A2064208C2960348C500C7
:1016C4000345F500C2966205AA96D4DB83C61500CD
:1016D40003C52500A2064205AA9603C50500AA96DD
:1016E40003C535006205AA9694CF83C6550003C589
:1016F4006500A2064205AA9603C54500AA9603C53D
:1017040075006205AA96D4CF83C6950003C5A500CB
:10171400A2064205AA9603C58500AA9603C5B5008C
:101724006205AA9694D383C6D50003C5E500A20634
:101734004205AA9603C5C50083C5F500AA96E2052D
:10174400AE96D4D3D443F59AD4C3D44393E61600C7
:10175400D4C3944393E6160094C3BA879443D842FF
:10176400058B59E3984E01452300E6009843184F32
:101774002183A300E6009843184F41832301E60028
:101784009843184F6183A301E6009C43D84F23027A
:10179400E600D84F2183A302E600D84F41832303F8
:1017A400E600D84F6183A303E60098532304E600C0
:1017B40098532183A304E600985341832305E6004C
:1017C40098536183A305E600D8532306E600D85353
:1017D4002183A306E600D85341832307E600DC53A4
:1017E400E183A307F600828001008DBF1737000054
:1017F400130747CF1443411122C49C5E4AC006C656
:10180400998326C2858B3A8417390000130949CD80
:10181400D1CB9C5E97340000938484CD93F7F7F981
:101824009CDE17370000034707CD93070008631BAE
:10183400F700832709009C4393F707041737000038
:10184400230BF7CA83C7040093F707049DC3973794
:1018540000009387E7AB9C4382979737000023A14E
:10186400A7CA83C7040093F7F70B173700002301B7
:10187400F7C883C7440093F707048DE785471737F4
:101884000000A309F7C697370000938727C89C4335
:10189400096798C7130700FC97360000238CE6C439
:1018A400D844F8D31C40985F1183058B09CB985F0B
:1018B4003D9B98DF054797360000238DE6C2985F6D
:1018C4001D83058B11CB985F1377F7F798DF854756
:1018D400173700002300F7C283270900D843058384
:1018E400058B19C7D843759BD8C3D843799BD8C3F4
:1018F400B24022449244024941018280397106DE99
:1019040016DC1ADA1ED82AD62ED432D236D03ACEE3
:101914003ECC42CA46C872C676C47AC27EC0F93585
:10192400F250E2525253C2533255A25512568256C5
:101934007247E2475248C248324EA24E124F824F7B
:1019440021617300203097370000938727BC9443AC
:10195400973700009387C7B903C70700058B11CBDE
:1019640097370000238807B897370000A38407B887
:10197400828003C71700058B65F7F85271FF83C790
:101984005700DDB7173800001308C8B5032708004F
:101994001C5F9583858BD1E709C61C5BBD8323003F
:1019A400F60085CA83270800985B460793576701AA
:1019B4006356070093E707C0C207C1830397060075
:1019C400C207C18709C7BA970947B3C7E70223907B
:1019D400F60085CD834715008DCB9736000083C66E
:1019E40086B193F606041387970089478DCA3A9502
:1019F40003470500854699471376F7066311D60217
:101A040062076187B947634C0700832708009C5F1E
:101A1400ED838D8B17370000A301F7AE81473E8518
:101A240082808547EDBF411122C406C617340000E9
:101A34001304C4AD18403DE9AE877453FDFE3E85E2
:101A4400B28597370000238607AA972001E0E78034
:101A5400603E973700009387E7A89C43B706800051
:101A64009843558F98C3D857719BD8D797370000A0
:101A7400A38207A897370000A38C07A61C40094738
:101A840098C3144017370000130787A6834727001D
:101A9400858B89EB83473700858BD9C7973700003F
:101AA400238A07A4B2402244410182808D476310F7
:101AB400F502973700009387E7A29C43B70680009E
:101AC4009843558F98C3D857719BD8D75DBF854726
:101AD400E319F5FA5447F977FD17F58F5CC70F1032
:101AE40000001C40096798C7130700F81736000068
:101AF4002302E6A0173700001307C79E10431842BD
:101B040031830D8B11E713076019F8D3D4C795BF40
:101B14001842094631830D8B6315C7001307E04350
:101B2400EDB71307E01BD5B7FC52ADF3A5BF5D714C
:101B3400A2C4A6C22A84130680022800AE84930598
:101B4400100886C6CAC04EDE52DCEFF06FE535459C
:101B5400972001E0E780206D17330000130383987A
:101B6400832703009376F41F173E0000130E4E9F45
:101B740023A40700984B973E0000938E2E99370FAD
:101B8400FCFF1367F70398CBF84F130510F8B7025F
:101B94000400137707E0558FF8CF9843F576FD16C8
:101BA400758F98C39843B706330093038025137742
:101BB400F7E798C3984311497D1F1377F7E7136735
:101BC400071098C303270E008549930F80021C4712
:101BD400D58F1CC783A70E001307900D3400B8CB14
:101BE400014793553700A69583C705001376770000
:101BF400B3D7C740858BE1C38327030083280E0036
:101C0400239C07042390070603A8C8021378D8FF6F
:101C140023A6080383A807001378F70793F808F8A6
:101C240033E8080123A0070103A8470233685800DA
:101C340023A2070383A80E00014823A2780603DA2F
:101C440007066307480303A80703038A060013581B
:101C5400F80062081358884163580A0103A807036F
:101C64001358F8002380060103D807061378F80FE9
:101C740003AA480663060A0003DA8705E37F49FBE3
:101C840003A847023378E80123A2070383870600E9
:101C9400635CF40003C805003396C9001346F6FFDD
:101CA400337606012380C5003E8663D3A7002A86C7
:101CB40013158601618505071377F70F8506E3126F
:101CC400F7F3B640264496440649F259625A6161D4
:101CD400828097360000938666839C42D847131609
:101CE400170163550602984713161701635006023D
:101CF4007D57B8D7172700001307C75C584F05074F
:101D040017260000232EE65C116798C798470D83B9
:101D1400058B1DC3172700000347A77D1367170012
:101D2400172600002307E67C130700F81726000097
:101D34002302E67C214798C79847058B09CF1727CC
:101D440000000347F77A1367170017260000A30162
:101D5400E67A054798C798470983058B09E79847AA
:101D64000583058B31CF9847172600001306467864
:101D740017250000130505770983058B63030710F6
:101D84001841184331830D8B75EBAC4B184E93F50A
:101D9400050203471700CDCD79EF13077006D8CF9E
:101DA4000347060013671700172600002302E67492
:101DB400114798C718415C57F19B93E717005CD70C
:101DC4009C4298479316370163D606029736000063
:101DD40083C6C689C18A173700001307A781C5CEF9
:101DE4000347870713670702973600002380E688B6
:101DF400056798C798479316270163D106021727EA
:101E040000000347276F6207618763570700054790
:101E1400972600002380E66E096798C798479316B3
:101E2400070163D606029736000083C63684858A86
:101E3400172700001307077CADCE034797071367E6
:101E4400270097360000A383E682216798C7828023
:101E540029D785456315B7001307B00689B78945A7
:101E64006315B7001307F0061DBF8D456315B70052
:101E7400130730072DB71307500715B7130760076B
:101E840039BF034736001367170017260000A30263
:101E9400E666094739BF834687070946BD8A6388D2
:101EA400C600034787078D463D8BE313D7F41147DC
:101EB40025BF83469707918AC9DA034797071367B3
:101EC400870041B7397106DE16DC1ADA1ED82AD625
:101ED4002ED432D236D03ACE3ECC42CA46C872C68E
:101EE40076C47AC27EC0F533F250E2525253C253E2
:101EF4003255A255125682567247E2475248C2489A
:101F0400324EA24E124F824F216173002030972728
:101F140000009387A75F98438567938707777CD3EF
:101F2400972700009387C7639C4383A607091396EA
:101F340056006358060083A6070913966600634497
:101F440006007453FDF2828071C5AA870145E9C574
:101F54008D07C207C183F19BC207C18313074003E6
:101F6400636FF70217270000130747680843172712
:101F740000001307276714436398A602172700007D
:101F84001307C739185B014541CB4111C20706C687
:101F94000545DD8D0297B240014541018280172736
:101FA400000013076764D9B70357650035E3035787
:101FB4004500636FF704B306F7402146637CD602FD
:101FC40003280500938687001D8FAA96611717269C
:101FD40000000356862F2392E60023A006012393D4
:101FE400060014C12312F500130786FF972600008C
:101FF400239DE62C2313B5009725000083D5E52CFB
:10200400B387F540172700002311F72C21058280A0
:1020140008419DB70145828082800DC19727000049
:102024009387C75C03A30700972700009387875B08
:1020340083A8070081469A8763E31701828003A877
:102044000700636DF50A636BA80A13878700E367CB
:10205400E5FE03D66700216705076317E60003C79B
:10206400018D05072388E18C97250000938585253C
:1020740003D6470003D7650023930700329742072E
:102084004183172500002312E524638A670217257C
:1020940000001305655508416303F50203D5660086
:1020A40019ED83D7460023A0060121073E96210699
:1020B4002392C600972700002399E720B687984308
:1020C400E30E17F797260000938606529442E3071F
:1020D400D7F683566700BDF283D647000356470000
:1020E4001843A106B2962392D70098C383D76500FC
:1020F400A10717270000231AF71C8280BE86C28717
:1021040025BF0327851163020712411122C406C6A5
:102114008347C5008345E5042A8493F7C70F230644
:10212400F500834697000356C70013958601618521
:1021340063F2C508635B05060345870093F6F6075B
:10214400A304D700054693E627006314C50093E66D
:1021540017002306D4005C4389075CC3A30AB400B8
:10216400032504112E864C430905EFE0FFFF832766
:10217400841103465401D44303D7C700B296118F88
:10218400D4C32396E7008947A30DF40003476403EF
:102194009727000083C7A7196378F7048347C4000F
:1021A40093E707012306F40081A093E717002306B1
:1021B400F4006DB79376F60F635D0502034587005F
:1021C400854513E627006314B50013E617002306BC
:1021D400C400A30AD400A30407008547A30DF40098
:1021E400832784119C43DDF3B2402244014541011D
:1021F400828093E717002306F400A30AD400A30403
:102204000700032504114C430905EFE0FFF583277C
:10221400841103465401D44303D7C700B296118FE7
:10222400D4C32396E7008D4755BF05458280972781
:1022340000009387E74E9C43411122C406C6858B58
:102244002A84C5EF4165130525F597E001E0E78091
:10225400208745C58347A5002315F500832704126D
:10226400BDE72320A4122322A41285472311F404DA
:10227400232005008347640154412316F5000347D6
:10228400D4002304E5000547A304E5001727000054
:1022940013070726184F1385170215811C437D1554
:1022A4001375F50F9CC25C43DCC21C479CC65C479B
:1022B400DCC61C4B9CCA5C4BDCCA1C4F9CCE5C4FDE
:1022C400DCCE19CD9386060213070702C1BF83270C
:1022D400441288C3835724042322A412850779B7A0
:1022E4009727000083D78731850717270000231716
:1022F400F730B2402244410182808347C40023095D
:102304000400054593C747002306F400DDB783475F
:10231400850193F7E70FD5EF83479501DDEB03467E
:1023240025018346C50009CA8345650317270000B4
:102334000347F7FF63E7E50013F7060141CF0147C1
:1023440009C6C18A0357651C81C68356A51C3697E6
:1023540051C31307C712172500000355E500B33511
:10236400A70237460F00411113060624814622C4F2
:1023740026C206C67D543305A702971002E0E78003
:1023840080829727000083C7F7FAB384A7009727B2
:1023940000009387272603A787098327070963F388
:1023A40087003E84184375FB97270000938747F600
:1023B4009C43829781476364A400B307A440B2405E
:1023C4002244B3B7970093C7170092443E85410156
:1023D400828081473E858280972700009387071378
:1023E40098437C53FDFF8280797126D206D622D48D
:1023F4004AD04ECE52CC56CA5AC85EC683475503FD
:1024040003447513AA843E941374F40F9307400293
:1024140063F687001304B4FD1374F40F03AA841342
:1024240083AAC413A38B841222865285D68597006F
:1024340002E0E780C071058915E503CBD412014998
:102444008149337B6403930B50024A865285D685B7
:10245400970002E0E780A06F058915C563916903C1
:102464001374F90F238B8412B250225492540259DC
:10247400F249624AD24A424BB24B45618280850995
:10248400E20993D989410509E31179FDE1BF832765
:10249400850903560504797193D60701BD8EC206DA
:1024A400C182358E1357764093575640898B058BDE
:1024B4005D8F93573640918B5D8F93571640A18B58
:1024C4005D8F93171600C18B5D8F9317360093F7BA
:1024D40007025D8F931756009355860093F7070400
:1024E4001E065D8F1376F60F518F93D7554013D682
:1024F4003540118A898BD18F13D67540D18F13D66D
:102504001540218AD18F13961500418AD18F1396D5
:10251400350013760602D18F139655001376060400
:102524009E05D18F93F5F50FCD8FA20745465D8F9C
:102534003307C70222D42A8426D252CC56CA032A8D
:102544008413832AC4135AC806D636974207418394
:1025540093577740135557400989858BC98F135575
:1025640037401189C98F135517402189C98F131515
:1025740017004189C98F1315370013750502C98FD8
:102584001315570093558700137505041E07C98F4B
:102594001377F70FD98F13D5354013D755401189C9
:1025A400098B498F13D57540498F13D5154021895F
:1025B400498F139515004189498F1395350013757B
:1025C4000502498F13955500137505049E05498F1F
:1025D40093F5F50F4D8F2207D98FB387C7024AD0E1
:1025E4004ECE5EC662C4B697C207C18313D7774086
:1025F40013D557400989058B498F13D53740118965
:10260400498F13D517402189498F139517004189A4
:10261400498F1395370013750502498F1395570099
:1026240093D58700137505049E07498F93F7F70F19
:10263400D98F13D5354013D755401189098B498F4C
:1026440013D57540498F13D515402189498F1395AA
:1026540015004189498F1395350013750502498F7B
:1026640013955500137505049E05498F93F5F50FD1
:102674004D8F2207D98FB387C702130650025285A4
:10268400D685B697BD8E93940601C18033F6C402F5
:10269400137BF60F970002E0E780604B05890DED90
:1026A4008347D41201498149B3849702130C500221
:1026B400C1804A865285D685970002E0E78020498A
:1026C4000589937BF90F11C563863403850993F952
:1026D400F90F0509E31F89FD230B6413B25022543B
:1026E40092540259F249624AD24A424BB24B224CAA
:1026F400456182805E8BCDB7797122D406D683C7BB
:1027040035002E8423160100A307F10083C745007A
:10271400100802C02307F10083C755008A8502C24E
:10272400A306F10002C402C802CA02CC02CEEFE042
:102734009FF00347F1018347040001456310F7024A
:102744000347E1018347140001456319F70003457A
:10275400D101834724001D8D13351500B250225436
:10276400456182800111972700009387A7E822CC56
:1027740003A4870C26CA4AC84EC606CEAA841309E7
:102784002500854915C083C7140003473400858B91
:102794006304F700405CFDB71946930544004A857D
:1027A400EFE09FA5E31835FF2285F2406244D2444E
:1027B4004249B249056182804111972700009387FD
:1027C40067E322C403A4870C26C24AC006C6930446
:1027D4002500054901E82285B24022449244024979
:1027E40041018280A6851305A4023937E30525FF3C
:1027F400405CCDB74111972700009387A7DF22C41F
:1028040003A4870C26C24AC006C6930425000549C2
:1028140001E82285B2402244924402494101828067
:10282400A6851305A401C93DE30525FF405CCDB78A
:102838009711002093818190175100201301017C8A
:102848001305400097D5FF1F9385457B1706002089
:102858001306C6FD63FAC5008322050023A05500B0
:1028680011059105E3EAC5FE172502001305457D0C
:1028780097050020938585FB1386C18363FAC500FD
:102888008322050023A0550011059105E3EAC5FE42
:102898001385018497250020938505E96377B500A2
:1028A800232005001105E36DB5FEFD42739002BCBF
:1028B8008D42739042809302800873A0023097D2B1
:1028C800FF1F9382A27393E23200739052309712E3
:1028D80000009382C26A7390123473002030B717D5
:1028E800004083C7E7040D8993F7C70FC98F732783
:1028F8000080218B9386018409CB7327008023A055
:10290800E18498425D9B731007800100010037172E
:102918000040130670052300C704130680FA23003D
:10292800C704010001002307F704230007047327E5
:1029380000809C42A18BD98F7390078023A00184CB
:1029480001000100828041112A83014E930E407ECE
:10295800130F0019930F400663E66E1493080019CD
:1029680013034006B3781503854E0D4FA14F3373FB
:1029780065020D891335150063E0BE161308F6FFCE
:10298800794672984208135808013307C70213D6CC
:102998001700BE0732976146B3F6C6021306807069
:1029A800B386C6023697A166F58F42075D8FB716C4
:1029B800004083C7F60293F70708A307F100034610
:1029C800F10083C7F60293F70708E394C7FE83472D
:1029D800F100B716004093F7F70F63890714F32740
:1029E8000080A18B9386018463980714010001007D
:1029F800B7170040130670052380C704130680FA32
:102A08002380C7040100010023AA070303C6170394
:102A180013660608A388C70223800704732600806C
:102A28009C42A18BD18F7390078023A00184010061
:102A380001001166B71500407D16DC59C85DA98FE5
:102A4800F18FE5FFF3270080A18B89CBF327008066
:102A580023A0F1849C42DD9B739007800100010054
:102A6800B7170040130670052380C704130680FAC1
:102A78002380C70401000100D8DB03C717031367CD
:102A88000704A388E70223800704732700809C4279
:102A9800A18BD98F7390078023A0018401000100C6
:102AA800410182807D133368E3039308E016630EC7
:102AB80008003368F3039308D01663080800937876
:102AC800330093B818009388D81633081E01131ED4
:102AD8000801135E0E0149B56393E5030548638653
:102AE80008000148630303002A8871087298FD15DD
:102AF800131E0801C205135E0E01C181B5BD13F88E
:102B0800150063F4BF007908D5B713381800E5BF7E
:102B180083C7F60293F70708A307F1000346F100FD
:102B280083C7F60293F70708E394C7FE8347F100CB
:102B380093F7F70FF1DF65B5F327008023A0F18441
:102B48009C42DD9B7390078055B54111B717004033
:102B5800985F3AC6945F3247E39CE6FE32454101EE
:102B680082801D71CEC662DC86CEA2CCA6CACAC837
:102B7800D2C4D6C2DAC05EDE66DA6AD86ED62A8CCD
:102B8800EF009028AA89F3270080A18B9384018401
:102B980089CBF327008023A0F1849C40DD9B7390B0
:102BA800078001000100B717004013077005238054
:102BB800E704130780FA2380E7040100010003C734
:102BC800F70213678700A387E70203C7F7021377A3
:102BD800770FA387E70223800704732700809C40B0
:102BE800A18BD98F7390078023A001840100010075
:102BF800F3270080A18B89CBF327008023A0F184E1
:102C08009C40DD9B7390078001000100B7170040CE
:102C1800130770052380E704130780FA2380E7046D
:102C28000100010003C7E7021377C70F2387E702F4
:102C380003C7E702136717002387E7022380070407
:102C4800732700809C40A18BD98F7390078023A0A5
:102C5800018401000100F3270080A18B89CBF327B1
:102C6800008023A0F1849C40DD9B739007800100C5
:102C78000100B7170040130770052380E704130706
:102C880080FA2380E7040100010003C737051377A2
:102C9800870FA389E70403C7370513671700A389BC
:102CA800E70423800704732700809C40A18BD98FF9
:102CB8007390078023A0018401000100130980C1DB
:102CC80033C92903916B938C0BE8130A5002930ABA
:102CD800803E2167130707D0130BA0043714004068
:102CE800930D0404617DFD1BB3C79903916C3309EF
:102CF80049033EC6B3CA5903B347E902130980FA28
:102D0800338A4A033EC8B347EA02130A7005338B75
:102D18006A033ECABD67938707A6B347FB02014B08
:102D28003ECC73270080218B09CB7327008023A01A
:102D3800E18498405D9B73100780010001009307B0
:102D480070052380FD0023802D0101000100034749
:102D5800340513670702A309E4040357040533671E
:102D680097012318E404035704053367A7014207B2
:102D780041832318E40423800D00F3260080984043
:102D8800218B558F7310078023A001840100010057
:102D9800034734051377070263080714034734050C
:102DA800218B6DDF73270080218B09CB732700806F
:102DB80023A0E18498405D9B731007800100010007
:102DC80023804D0123802D010100010003473405B4
:102DD8001377F70DA309E4040347340513670702C3
:102DE800A309E40403570405336797012318E4048F
:102DF800035704053367A701420741832318E404F6
:102E080023800D00F32600809840218B558F731086
:102E1800078023A0018401000100034734051377CC
:102E28000702630E070E03473405218B6DFF313B04
:102E38002A873ACE193B7247E30DE5FE035704058E
:102E4800336797012318E40403473405218B6DDFAA
:102E58008356040503472405B247B3F6DB003387DE
:102E6800EB02BA969D8EC24763D5D700D24763C39B
:102E7800F60E09476362670FE24713061B001397B4
:102E88001600137BF60F3347F7026350D04005074F
:102E980089463347D702F3260080A18A89CAF326D8
:102EA800008023A0D1849440DD9A739006800100AD
:102EB800010023804D0123802D010100010083566C
:102EC800C4023697420741832316E40223800D008B
:102ED800F32600809840218B558F7310078023A01C
:102EE80001840100010035BD73270080218B09CBC7
:102EF8007327008023A0E18498405D9B73100780AE
:102F08000100010023804D0123802D0101000100F3
:102F18000347340513670702A309E404A9BD73270F
:102F28000080218B09CB7327008023A0E18498407F
:102F38005D9B731007800100010023804D012380F1
:102F48002D01010001000347340513670702A30997
:102F5800E4047DB5E3020BF2F3270080A18B89CB53
:102F6800F327008023A0F1849C40DD9B73900780A9
:102F780001000100B7170040130770052380E7041C
:102F8800130780FA2380E7040100010003C737050F
:102F98009376FC0F1377870FA389E70403C73705D8
:102FA800558FA389E70423800704732700809C407A
:102FB800A18BD98F7390078023A0018401000100A1
:102FC800B717004013067005930580FA03C7370545
:102FD8001D8B631E872BF3270080A18B89CBF327DA
:102FE800008023A0F1849C40DD9B73900780010042
:102FF8000100B7170040130770052380E704130783
:1030080080FA2380E7040100010003C737059166B1
:103018001377F70DA389E70403C73705136707027A
:10302800A389E70403D70705558F2398E70403D737
:103038000705A166558F2398E704238007047327A3
:1030480000809C40A18BD98F7390078023A00184B6
:1030580001000100B717004093067005130680FAB7
:1030680003C7370513770702630A07263717004097
:1030780083473705A18BEDDFF3270080A18B89CB30
:10308800F327008023A0F1849C40DD9B7390078088
:1030980001000100B7170040130770052380E704FB
:1030A800130780FA2380E7040100010003C73705EE
:1030B80091661377F70DA389E70403C737051367EC
:1030C8000702A389E70403D70705558F2398E70468
:1030D80003D70705A166558F2398E70423800704C3
:1030E800732700809C40A18BD98F7390078023A001
:1030F800018401000100B71700409306700513060C
:1031080080FA03C7370513770702630107223717C9
:10311800004083473705A18BEDFF053C2A843534F1
:10312800E30F85FE37170040835707059166D58F53
:103138002318F70483473705A18BEDDFF3270080B9
:10314800A18B9386018489CBF327008023A0F18487
:103158009C42DD9B7390078001000100B717004077
:10316800130770052380E704130780FA2380E70418
:103178000100010003C737051377F70DA389E7049A
:1031880023800704732600809842218B518F731087
:10319800078023A001840100010003D7070503C6A7
:1031A80027059167FD177D8FB387C70237460F0044
:1031B80013060624B3C9C9023E978567938707FAA1
:1031C800B3978701B389370393070010B3C9F9028E
:1031D8009307800C8E09B30937410547331C8701D3
:1031E800135C3C40B30A5C03130C60553D6713073E
:1031F80007A6B38A8A03B3CAEA02B387F902B3C738
:103208005703635D301785070947B3C7E702960779
:1032180073270080218B09CB7327008023A0E184CA
:1032280098425D9B7310078001000100371700402A
:10323800130670052300C704130680FA2300C70489
:10324800010001000356C702B297C207C1832316C3
:10325800F70223000704732700809C42A18BD98FB3
:103268007390078023A0018401000100F6406644A2
:10327800D6444649B649264A964A064BF25B625CF2
:10328800D25C425DB25D256182807D1711B17327E2
:103298000080218B09CB7327008023A0E18498400C
:1032A8005D9B73100780010001002380C704238001
:1032B800B7040100010003C73705558FA389E70448
:1032C80023800704732500809840218B498F731051
:1032D800078023A0018401000100CDB97327008075
:1032E800218B09CB7327008023A0E18498405D9B44
:1032F80073100780010001002380D7042380C704CE
:103308000100010003C7370513670702A389E70413
:1033180023800704F32500809840218B4D8F73107C
:10332800078023A00184010001001DBB73270080D2
:10333800218B09CB7327008023A0E18498405D9BF3
:1033480073100780010001002380D7042380C7047D
:103358000100010003C7370513670702A389E704C3
:1033680023800704F32500809840218B4D8F73102C
:10337800078023A001840100010061B3FD1769B52E
:10338800914763EEB70217170200130767468A05CD
:10339800BA959C41BA978287B717004003A7470B95
:1033A8001345F5FF698F23AAE70A03A7070B698F5F
:1033B80023A8E70A03A7070A798D23A0A70A828012
:1033C800B717004083A6470B1347F5FFF98E23AACA
:1033D800D70A83A6070B558D23A8A70A83A6070A31
:1033E800758F23A0E70A8280B717004003A7470B11
:1033F800498F23AAE70A03A7070B1345F5FF45BF23
:10340800B717004083A6470B1347F5FF758F23AA0C
:10341800E70A03A7070A598D4DB7B717004003A756
:10342800470B498FEDB7914763EEB70217170200B4
:103438001307473D8A05BA959C41BA978287B71703
:10344800004003A7470D1345F5FF698F23AAE70C32
:1034580003A7070D698F23A8E70C03A7070C798D2D
:1034680023A0A70C8280B717004083A6470D1347F7
:10347800F5FFF98E23AAD70C83A6070D558D23A82F
:10348800A70C83A6070C758F23A0E70C8280B717BB
:10349800004003A7470D498F23AAE70C03A7070D90
:1034A8001345F5FF45BFB717004083A6470D1347DF
:1034B800F5FF758F23AAE70C03A7070C598D4DB7A5
:1034C800B717004003A7470D498FEDB7411122C434
:1034D8003717004006C6834727020357070213849D
:1034E800018493F7F70F4207418325E91377F79F84
:1034F800420793F7F7074183F3260080A18A89CA18
:10350800F326008023A0D1841440DD9A73900680AE
:1035180001000100B7160040130670052380C60499
:10352800130680FA2380C6040100010093F7F70F01
:103538002381F6022390E602238006047327008085
:103548001C40A18BD98F7390078023A001840100B0
:103558000100B24022444101828093E707081367C3
:103568000740F3260080A18A89CAF326008023A099
:10357800D1841440DD9A7390068001000100B716CB
:103588000040130670052380C604130680FA2380C2
:10359800C604010001002381F6022390E60223807D
:1035A8000604732700801C40A18BD98F7390078075
:1035B80023A0018401000100294597D0FF1FE7805F
:1035C800805EF3270080A18B89CBF327008023A09E
:1035D800F1841C40DD9B7390078001000100B71740
:1035E8000040130770052380E704130780FA23803F
:1035F800E7040100010003D707021367072023909F
:10360800E702238007041DBFB717004003D58700D2
:10361800420541819377050491EB9377F50137557E
:10362800E801130505803345F50282809377050C80
:10363800130700046397E7009377F50137459C1C4F
:10364800CDB72165130505D0828037E700E01C431C
:103658005443A183E206D58F1CC1FD572320F718D8
:103668002322F718828013178500B7E700E023A00C
:10367800E710618123A2A7108280B7F700E088478E
:10368800CC47828041119397050122C406C6C187A1
:103698002E8463DD0700EF00101B19C1EF009013A3
:1036A8002165218DB24022444101828093F71500A3
:1036B80013C51500E5FB939715010145E3D407FEF3
:1036C80013060064916503C54184EF00D06311655A
:1036D800C9BF11456FF0EFC85D71494697150200E3
:1036E80093858513171502001305853686C697E05E
:1036F800FF1FE78020B011E101A0B7F600E079577D
:1037080098CAFD57DCCA0567B7E700E023A0E710B1
:103718001306F00290C223A0E71801000100130667
:10372800C0038145480097E0FF1FE78020A797F76F
:10373800FF1F9387A7333EC28967938707802314A7
:10374800F100ED47231AF1009547A309F1008547D9
:10375800230BF10097070000938767F23ED2B73733
:10376800010D938747D03ECC970700009387C71871
:103778003ED4580097F7FF1F9387471C97F6FF1F03
:103788009386661B03C65700FD170507A30CC700E1
:10379800E39AD7FE4800EF10C03011C101A0B6402F
:1037A800616182804111170500001305E5ED06C629
:1037B800EF10602B2382A1848D20B24041017DAAA5
:1037C800F3270080A18B1387018489CBF32700801E
:1037D80023A0F1841C43DD9B739007800100010046
:1037E800B7170040930670052380D704930680FA24
:1037F8002380D70401000100C8DB23800704F326D7
:1038080000801C43A18BD58F7390078023A001846F
:103818000100010023A401848280411106C6F32718
:103828000080A18B1387018489CBF327008023A014
:10383800F1841C43DD9B7390078001000100B717DA
:103848000040930670052380D704930680FA2380EE
:10385800D7040100010083C6F70293F6A60FA387D9
:10386800D70223800704F32600801C43A18BD58F41
:103878007390078023A0018401000100F3270080D2
:10388800A18B89CBF327008023A0F1841C43DD9B07
:103898007390078001000100B71700409306700578
:1038A8002380D704930680FA2380D70401000100FF
:1038B80083C6F70293E62600A387D702238007046E
:1038C800F32600801C43A18BD58F7390078023A01B
:1038D800018401000100F53B1305407E8147014743
:1038E800814605468545EFF00F86B2400145410106
:1038F8006F10C04F011122CC2A84680006CE26CA58
:10390800A933EFF08FA4B307A4406376A400B707E8
:10391800C0A8A297898F3737E2A181170117637A68
:10392800F700324589330945F2406244D2440561C3
:103938008280228571353245938481842D339C4061
:103948000D45FDF3694597D0FF1FE780A0949C4083
:103958008DC31305D402B707C0A863F7A7003705BE
:1039680040571305D5022295A13D97C0FF1FE78058
:1039780000720545EFE0BFF601457DB7F3270080EB
:10398800A18B1387018489CBF327008023A0F184BE
:103998001C43DD9B7390078001000100B7170040AE
:1039A800930670052380D704930680FA2380D704F2
:1039B8000100010083C6E70093E686002387D7004D
:1039C80023800704F32600801C43A18BD58F7390B6
:1039D800078023A0018401000100F3270080A18B48
:1039E80089CBF327008023A0F1841C43DD9B7390CF
:1039F800078001000100B717004093067005238077
:103A0800D704930680FA2380D7040100010083C6F7
:103A1800170393E60602A388D70223800704F32638
:103A280000801C43A18BD58F7390078023A001844D
:103A380001000100B7E700E03707001023A0E710F6
:103A4800828085450D65C5B285450565E9BA8D4510
:103A58000565D1BA371700408327870C8966D58F4B
:103A68002324F70C8280371700408327C70C896608
:103A7800D58F2326F70C8280371700408327870CC1
:103A88008566D58F2324F70C828041118D450D65FD
:103A980006C6513AC137B2404101F9BF411106C6C5
:103AA800D9377537D13F094597D0FF1FE780A00F59
:103AB8005537094597D0FF1FE780E00EB240410116
:103AC8005DB7371700408327C70C8566D58F232637
:103AD800F70C8280411106C69D3F793FA53F1145ED
:103AE80097D0FF1FE780200CE93F114597D0FF1FB3
:103AF800E780600BB2404101BDB7411106C6813F66
:103B08009D37C137114597D0FF1FE780C009993706
:103B1800A537B2401145410117D3FF1F6700A3081D
:103B2800411106C689372537693F094597D0FF1FD8
:103B3800E78060070537094597D0FF1FE780A00693
:103B4800B24041010DB7411106C622C426C2214424
:103B5800AA84F53D093F93978401E18763C0070470
:103B68008D37094597D0FF1FE780E003E535094504
:103B780097D0FF1FE78020037D14F535860409459B
:103B88001374F40F93F4F40F97D0FF1FE780A0018C
:103B980079F0B2402244924441018280F13DD1B78C
:103BA800B717004003A5470C3181058982800111B0
:103BB80006CE22CC513DC935054597D0FF1FE78079
:103BC80080FE493D054597D0FF1FE780C0FD1304DF
:103BD800B00FF93709E52AC67935324539A07D1481
:103BE8001374F40F7DF4113F0545F24062440561FA
:103BF8008280411106C6513DF13D13058008A13769
:103C08007D3701C5B2404101CDBD1305D00F253F19
:103C1800793FCDBF411122C426C24AC006C62A89AF
:103C2800A1441D3501448135094597D0FF1FE78020
:103C380080F7060405351374F40F9D3701C5050494
:103C48001374F40FFD14054593F4F40F97D0FF1F78
:103C5800E78060F5E9F8631A090089352285B240E2
:103C6800224492440249410182805D3DC5BF797179
:103C780006D626D24AD022D44ECE52CC2A89AE8439
:103C8800913D13059008C1351D376311050E014498
:103C980099491305B4FF3335A000AD3F3C00A29706
:103CA8002380A7000504E31634FF813D593B835761
:103CB8008100171402001304E4B813958700A18348
:103CC8005D8D42054181EF0062419717020093879D
:103CD800E7B69043D443EFF0110110405440EFF0A1
:103CE800412597170200938767B69043D443EFF0B6
:103CF800114BEF0052058347C1002A8A0345B100E2
:103D0800A207C98F13958700A1835D8D4205418164
:103D1800EF00C23C971702009387C7B39043D44380
:103D2800EFF0617C10405440EFF0A120971702009B
:103D38009387C7B29043D443EFF07146EF00B200C7
:103D480097170200938787AE83A907002A84CE8538
:103D5800EF00223F634FA002930500002285EF0089
:103D6800A24663590502130400002DA07933971762
:103D78000200938767AC9C432320F9009307000057
:103D88009CC0B250225492540259F249624A456189
:103D980082804E842320490180C0E5B74111939762
:103DA800050122C406C6C1872E8463DD070003C54A
:103DB8000185512C11C1392C2165218DB240224435
:103DC8004101828093F7150091CF17F6FF1F130664
:103DD80066A79385419203C50185EF50316113456C
:103DE8001400E9BF93F705018DC797D0FF1FE7803F
:103DF80060EC41469305000203C501852927116639
:103E0800130606E8C14503C50185F52D13450401D0
:103E180075B793F705020145D5D397D0FF1FE78003
:103E2800E0E91345040259BF011117050000130505
:103E380025F706CE22CC26CA13840185EF00B042AE
:103E4800854770002300A4008545130550302306DC
:103E5800F1009164EF60410D938504E80D45EF2072
:103E68003024938504E81145EF20902317F6FF1FAF
:103E78001306C69BD54513056030EF60E10A8967D4
:103E8800938757ED70009145130570403EC6A30512
:103E98000100EF4031591306B10085451305004074
:103EA800EF405158034504008545F12903450400B6
:103EB8001386A4E3C145812DF2406244D2440561D2
:103EC8008280011122CC1306910005448545130513
:103ED800004106CEA3048100EF40D15423058100A0
:103EE8001164930504E80D45EF20901B930504E841
:103EF8001145EF20F01A1306A1008545130550302F
:103F0800EF60810217F6FF1F13064692D545130589
:103F18006030EF6061018967938757ED70009145C4
:103F2800130570403EC6A3050100EF40B14F1306CC
:103F3800B100854513050040EF40D14EF240624480
:103F4800056182801147631CE500011106CE2AC66F
:103F58008D3F3245F24023A6A18405618280938774
:103F6800C1849C43E383E7FE09476395E7008D47D7
:103F7800E30DF5FC23A6A18482804111054506C600
:103F8800EFF0CFD41305800497C0FF1FE780407679
:103F980085457D55EFF0CFBE85457D55EFF0AFC81F
:103FA800EFF08FF3EFF01F80EF60E129B53D97D078
:103FB800FF1FE78040D623AC05FE1C4191E70100B6
:103FC80001000CC18280BA8703A787FF6DFF23AC6D
:103FD800B7FE82801DC18346E5FF1307F00F9147A6
:103FE800639EE600411106C697E0FF1FE780A00226
:103FF800B24081473E854101828095473E85828057
:1040080001E9014582800145B24022444101828094
:1040180095654111938505D022C4C98D2A8421054F
:10402800C2054205C181418106C697E0FF1FE780AE
:1040380060F171D9FD572320050023128500230361
:10404800F5002105D1B7170700201307E7261C4301
:10405800411122C426C24AC006C601440149BA8495
:1040680089E7A165D1251DC401A803C7E7FF631A25
:10407800A7020DCCA165012E9840832784FF631900
:10408800E402170700202329F722FD57232C04FEFA
:10409800230FF4FE2285B240224492440249410192
:1040A800828011E03E8983A787FF5DBF3E84E5BF1C
:1040B800232CF9FED9BFB1CD411122C406C62A84EA
:1040C8009707002083C7971F2E856375F4008947DB
:1040D80063E8870001370D45B240224441018280E0
:1040E80083A785FF99E703C7E5FF9307F00F6305EB
:1040F800F700CD351545CDB7238F85FE1705002070
:104108001305851B4D3D22852244B240A16541011E
:104118009DAC154582809707002023AF0718828041
:10412800970700209387C71E9C4399E33E858280AA
:1041380003D727006316B70003C70700E308A7FEE5
:10414800DC47E5B7C9C1797122D406D626D24AD050
:104158004ECE01444147B3D78540858BA5C3120590
:10416800314722953305E502970700209387471EBC
:1041780003A907008544B3948400C204C180BE89A2
:104188002A990327090011C7032549002EC602975B
:10419800B24531473304E40283A709003E941C4426
:1041A80089E72320090023220900B2502254A58D53
:1041B80002599254F2492E85456182800504E31C18
:1041C800E4F88144DDB72E858280411113970501FB
:1041D80022C406C626C24AC041872E84635E0700F1
:1041E8009D3511C1C53BA1673D8C2285B240224453
:1041F8009244024941018280EDD9AA87014741468C
:10420800B356E440858A8DCE9207BA97B146B387F4
:10421800D702970600209386A61303A906008544B3
:10422800B394E400C204C1803E99832709000325A2
:10423800490082972320090023220900258C75B79D
:104248000507E31FC7FA8144D5BF97070020938766
:10425800670C9C53411122C406C61384818099C7F8
:1042680082971C403E9523A4A18039A0970700207F
:10427800938787099C43EDF70840B7470300938766
:10428800D73F3305F502B7A72600938737ECB2402E
:1042980022443E9523A4A180410182807DC19707D5
:1042A8000020938767069C43797122D426D24AD08E
:1042B8004ECE52CC56CA5AC806D65EC63A8AB68977
:1042C800328BAE8A2A8982979707002093874708FE
:1042D8009843BE840144B146C147B30BD4023306A8
:1042E8007701104251EAC165938505F0414597E091
:1042F800FF1FE78020C51DE59707002093878701EA
:104308009C5B2D4589C71145814582972D45B25043
:10431800225492540259F249624AD24A424BB24B51
:104328004561828097070020938787FE984329E399
:104338009707002023AEA7FC230005009C400547F3
:104348003317870023260500232465012311E50080
:1043580023224501DE9723A0270123A2570123A486
:1043680047010145E38509FA238089004DB73E8757
:104378005C47F5FF48C7C9B70504E310F4F62145C3
:1043880079B7094582809707002083C737F363719F
:10439800F50217070020130767F79317150008435E
:1043A8003E9583570500DD8D2310B50001458280B9
:1043B8000D4582809707002083C757F06373F50285
:1043C80017070020130787F493171500084393C5B0
:1043D800F5FF3E9583570500FD8D2310B500014577
:1043E80082800D458280130705FF1377F70FFD477D
:1043F80063E9E70AB146B306D50297070020938719
:1044080027F5984389473697184349CF011122CC9D
:104418004EC60544935945003D893315A40013142D
:104428000501418026CA4E85AE84A2854AC806CEBB
:10443800C5392A89814731CDA2854E85A53F970781
:104448000020938767EC9C4382979707002083D7C7
:1044580027F1338797022A84814613060064B3B78D
:10446800970213050732B335E500BE95EFE0E17218
:10447800B307850097060020938606EE3E87D44250
:1044880063E4A70063E4D7003387D7402324E90017
:104498008147F2406244D2444249B2493E850561AF
:1044A800828089473E858280011126CA06CE22CCA9
:1044B8004AC84EC6BD47894463EFA7023147330750
:1044C800E502970700209387A7E89C438944BA9799
:1044D8009C4395C305443314A400420441802E89AB
:1044E8000145A2853539AA89814411C5A2850145AE
:1044F800D13523A42901F240624426854249D24499
:10450800B249056182809707002083C737DB63645F
:10451800F500014582800111970700209387C7DEC7
:1045280056C283AA070006CE22CC26CA4AC84EC65F
:1045380052C4638D0A0A170A0020130AEAE1832489
:104548004A00B74736FE938707C8AE89970500200B
:1045580083D505E1BE94B387C5022A843289814692
:10456800B3B5C50213850732B337F50013060064E7
:10457800BE95EFE0816263EBA406829A970500205E
:1045880083D505DEB3872503AA8413060064814614
:10459800B3B5250313850732B337F500BE95EFE0B1
:1045A800C15FB3079500BE8403274A0063E4A700F0
:1045B80063E4E700B384E740CE852285953601C5DC
:1045C80004C505452DA0936504F0C205C181414588
:1045D80097E0FF1FE780009705E59707002093877E
:1045E80067D39C5B81C7A285114582970145F2403C
:1045F8006244D2444249B249224A924A05618280C1
:10460800970700209387C7D09C439DE39707002016
:1046180023A0A7D085472326050004C5231135010B
:1046280023008500A300F5002322050059BFBA879F
:10463800D84775FFC8C7F9BF59C9797122D426D29E
:104648004AD04ECE52CC56CA5EC662C466C206D6A0
:104658005AC83689328AAE89AA844144314C970AAD
:104668000020938AEACE854C930B0003330B840316
:1046780003A70A005A971C43B1E79375F400B39552
:10468800BC0013554440C2055286C1811375F50F0D
:104698009D3D0DC983A70A000145DA9784C323A26B
:1046A80037016304090023008900B2502254925450
:1046B8000259F249624AD24A424BB24B224C924CBE
:1046C800456182800504E31374FB2145F9BF094560
:1046D8008280411122C426C24AC006C62A842E8975
:1046E800B2841535CA852285EFF09FA305CD9705BD
:1046F800002083D5E5C6B38795022A841306006493
:104708008146B3B5950213850732B337F500BE95D8
:10471800EFE0A14848C00145B24022449244024912
:10472800410182802145CDBF411122C426C24AC021
:1047380006C62A892E84EFF0BF9EAA8419C12311C8
:104748000500A2854A85BD319707002083C707B7B2
:10475800639B27019707002083D7C7BA5D8C97070B
:104768000020239187BA014591E01945B2402244BF
:1047780092440249410182809307F00263E8A7044A
:104788004111B14722C43304F50226C29704002020
:10479800938404BC9C4006C6A297984389470DC3DE
:1047A8009377F5008545B395F500C205C181118160
:1047B800A53F9C40A29723A0070023A2070081479A
:1047C800B240224492443E854101828089473E8519
:1047D8008280411106C622C4EFF09F9411E501457D
:1047E800B240224441018280970700209387C7B1D5
:1047F8009C4300458297970700209387E7B5636835
:10480800A402D843B74636FE938606C83305A440AB
:104818003697E376E5FC13070064B335E50203D663
:10482800870081463305E502EFE0213755BFD843BD
:104838003A94C1BF411122C426C2170400201304B0
:10484800A4B197040020938464A79448584097071C
:104858000020938767AB06C69C436393E60882975C
:104868005440B74736FE938707C8B6973387A700E3
:104878003A856364F7006364D7003305D74097042B
:104888000020938464C69C4C81CF970700209387AF
:10489800A7CC94433707CDFF7D179C46F98F9CC65C
:1048A80011E14840970700209387C7A6DC538297F9
:1048B80019E59C4C8DC3EFF0B05BEFF0803E9C4C4B
:1048C80099CB97070020938727C99843B7063300E9
:1048D8001C47D58F1CC7B2402244924441018280B4
:1048E800829798489707002083C717A454401D8FC4
:1048F800B307A7003E8563E4E700E3E2D7F8338512
:10490800D740B5BF411106C69707002023A4A7A426
:104918000295B2409707002023AEA79A01454101AE
:104928008280994763E9B7008A0597070020938733
:10493800A79BBE9588C182804111714681451705A4
:1049480000201305659A06C69707002023A2079C36
:104958009707002023A007A09707002023A6079AFF
:1049680097D0FF1FE78080831306800281451705D3
:1049780000201305A59497D0FF1FE7802082EF50F1
:1049880051169707002083C7579A13D527008D8B98
:104998003E958D473305F502854539051375F50FA5
:1049A80097070020238DA79099473305F502130533
:1049B800052497D0FF1FE780E05817070020232918
:1049C800A79859CD9947170600200346468F330606
:1049D800F60281451306062497C0FF1FE780007C76
:1049E800970700209387C7969C4393870724170748
:1049F80000202329F78E170700200347478C0A0752
:104A0800BA97170700202323F790EFF0CFF005237C
:104A1800970700209387078D94439707002083C743
:104A2800F78913972700369717F6FFFF1306C67105
:104A380010C3138717001377F70F0A07369717F66F
:104A4800FFFF1306C67810C313873700890793F74B
:104A5800F70F8A0797050020A382E586B69790C3CB
:104A6800B240410182809707002083C73785170726
:104A780000200347C78463F3E702170700201307E2
:104A8800678618439386170017060020A308D68266
:104A980093962700369708C33E8582809307F00FC8
:104AA800E5BF1C41638A071641777D8FB706002052
:104AB80089476314D7160357450063000716411149
:104AC80022C419462A849305F00F690506C697C0C3
:104AD800FF1FE780C07605478D47630AE5121C442F
:104AE80081CB5858994763040712185C6301071271
:104AF8001306C0038145170500201305A58197C03B
:104B0800FF1FE780A0691306C003A28517050020D0
:104B18001305458097C0FF1FE780C0641707002072
:104B28000357078097F7FF1F9387C77E19E7130777
:104B3800001097F6FF1F2395E67E17F7FF1F034720
:104B4800477E11E7054797F6FF1F238CE67C17F78A
:104B5800FF1F0357277D11E76D4797F6FF1F239324
:104B6800E67C17F7FF1F0347D77B11E7154797F632
:104B7800FF1FA388E67A17F7FF1F0347C77A11E7D5
:104B8800054797F6FF1F2380E67A17F7FF1F0347AD
:104B9800977919E703C7F70097F6FF1FA385E6780B
:104BA80017F7FF1F0347477811E7354797F6FF1FA9
:104BB800238CE67617F7FF1F0347577719E7130784
:104BC800800297F6FF1FA383E67617F7FF1F0347B8
:104BD800B77519E71307D00297F6FF1FA386E67487
:104BE8000347840119E71307C00397F6FF1F238FB4
:104BF800E6729C5791C7829797F7FF1F2394A76C7B
:104C0800FD5717070020A30BF79A3D338147B240A1
:104C180022443E854101828089473E858280011178
:104C28004EC697F9FF1F9389297383A7090006CEFB
:104C380022CC26CA4AC852C4829713090064B335E5
:104C4800250303DA89008146528633052503EFD010
:104C5800D17497F7FF1F93876766804FAA84014531
:104C68006306940233858440636E940003A549006B
:104C780052868146B335A9023305A902EFD0F171F6
:104C8800018D269597F7FF1F23A69764F24062448B
:104C9800D2444249B249224A05618280011122CC9C
:104CA8000A852E84414697050200938565B306CE92
:104CB800EFF07127180806043A94035504FF97F794
:104CC800FF1F83D7076AF2406244AA9737450F004F
:104CD800130505243355F5020561828097F7FF1FF8
:104CE80083D7276851471D45637CF70279471945E3
:104CF8006378F7021307200315456373F702130758
:104D0800B0041145637EF700130740060D4563792B
:104D1800F7001307600909456374F70013B5B70F67
:104D28008280011122CC06CE2A842EC6EFF0EFD164
:104D3800B245F240818D33A5A502229562441375D0
:104D4800F50F05618280011122CC06CE2A842EC679
:104D5800EFF0AFCFB245F240818D33A5A502229581
:104D680062444205418105618280011122CC06CE50
:104D78002A842EC6EFF06FCDB245F240818D33B54F
:104D8800A502229562440561828097F7FF1F9387E9
:104D98006758985739CB411122C426C206C6BE842B
:104DA800029717F7FF1F0357E7512A8415CBBA87D5
:104DB8006373A700AA87C207C183BA866373E40036
:104DC800A286C206C182958F5147635BF700DC5407
:104DD80091C38297EFF0407397F7FF1F2394874E94
:104DE800B2402244924441018280828097F7FF1F9B
:104DF80093874752DC57011106CEAA8581C72AC678
:104E08008297B245C1C59C410545B5CFDC41A5CFC8
:104E180083D78500ADCB83D7A500B5C783C7C500A9
:104E2800BDE3414617F5FF1F1305055397C0FF1F44
:104E3800E780403397F7FF1F938707529C4317F784
:104E4800FF1F2323F74C97F7FF1F83C7374E8DE7C4
:104E58009307800217F5FF1F035585503305F502A8
:104E680037460F001306062481468145EFD0F152DC
:104E780097F7FF1FA38CA74A17050000130565DAEB
:104E8800EFF05FA80145F2400561828097F7FF1FA8
:104E980083C7A7491397870161876350070497F76A
:104EA800FF1F23AB074297C7FF1F9387A76E17F70C
:104EB800FF1F2323F74AFD5717F7FF1F2320F74A41
:104EC800B7873200938727A117F7FF1F232AF748D0
:104ED80097F7FF1F23880748B1BF13F7170005CBC3
:104EE800B7872003938707D017F7FF1F232AF746B2
:104EF800B707C0A817F7FF1F2322F74697C7FF1F5A
:104F08009387676C17F7FF1F2328F744D1B761779A
:104F180097F6FF1F2396E64481CB9307003217F7D5
:104F2800FF1F2310F744E9B793072003CDBF0111F2
:104F380022CC17F4FF1F1304E43D084406CE26CA0A
:104F48004AC801E90545F2406244D2444249056134
:104F580082805C58E5DB185C75D7700085458297C0
:104F68001844B247E300F7FE9305E00417F5FF1F66
:104F78000355053B97D0FF1FE780C0FC17F7FF1FBD
:104F8800232EA73461D117F6FF1F03566639930500
:104F9800F00F97C0FF1FE7806020814417F9FF1FBB
:104FA8001309C93197F7FF1F83C7A73703260902DB
:104FB80063C1F402328597D0FF1FE780C005014521
:104FC80097F7FF1F23AC073097F7FF1F23AA073077
:104FD8009DBF97F5FF1F83D5A534B3879502084475
:104FE800185C898185043E9508C2029765BF011146
:104FF80056C297FAFF1F938AEA3183A78A0022CC08
:105008004AC84EC606CE26CA52C45AC0AA892E8499
:1050180032896385072203A74A03630707147D477C
:105028006366A71497F4FF1F9384442903AA040214
:1050380063170A0A9565938515E017F5FF1F035551
:10504800252E97D0FF1FE780E0EF97F7FF1F23A7D4
:10505800A7282A86630A051083A74A0303A58A009E
:1050680097F5FF1F83D5C52B8981829783A78A006F
:1050780003AA040217F7FF1F2324F7268947639C16
:10508800F908C1476312F40E97F5FF1F83D5452928
:10509800938505FC9147B3C5F5028A05D29503C7E8
:1050A80005009307A005631DF70A83C715006399D8
:1050B800370B4A852286910597C0FF1FE780800A33
:1050C8009C505285639347150145F2406244D2448F
:1050D8004249B249224A924A024B05618280D8501D
:1050E800E38EE7F89565938525E017F5FF1F0355CF
:1050F800252397D0FF1FE780E0E42A8A35C52A8652
:1051080083A74A0303A58A0097F5FF1F83D5452186
:1051180089818297A5B78D47639DF900C1476315BB
:10512800F40497F5FF1F83D5A51F938545FDF199D5
:10513800B5B79147639AF9006318340397F5FF1FD1
:1051480083D5051EA115E5B7C147639FF900A1479F
:1051580063EC870097F5FF1F83D5851CC115C1BF78
:105168009C5052856397470D294585B71307F0066C
:10517800568B6361A70A130A05FE1947334AEA02E8
:1051880017F7FF1F0357C71997FAFF1F938A0A13C8
:10519800330AEA023E9A83A74A026395470183A429
:1051A8000A029DE49305E00417F5FF1F0355451710
:1051B80097D0FF1FE78000D9AA845DD583274B03CA
:1051C80097F5FF1F83D5C5152A8689815285829751
:1051D80091451307A005898193972500A69783C653
:1051E80007006393E60483C61700639C36038505AE
:1051F8008A052286A6954A8597C0FF1FE78080F614
:1052080083A70A02E38297EC268597D0FF1FE780E1
:1052180080E05DBD1307E007E368A7F4130A05F90A
:1052280085B783D5270045BF83A70A02E38E97F287
:10523800268597D0FF1FE78000DE3DB797F7FF1F51
:105248009387C7078C538DD191479306A00589830F
:10525800139727002E9703460700E317D6F0034657
:105268001700631C360185078A072286BE954A8582
:1052780097C0FF1FE78000EF81BD83572700C1BF9C
:1052880097F7FF1F93870709984739C79C5FA9C7F6
:1052980005476313E504411122C417F4FF1F1304E3
:1052A800E401105006C60DC6485097F5FF1F83D578
:1052B800250789818297085097D0FF1FE780A0D5DE
:1052C80097F7FF1F23AC070097F7FF1F23AA0700D4
:1052D800B2402244410182808280011117F7FF1FEA
:1052E800130747034EC68329870022CC26CA4AC81B
:1052F80006CE52C456C2AA842E843289638A0920F3
:105308001C5FBA8A99EB2945F2406244D24442496B
:10531800B249224A924A056182805C5BEDD7FD471B
:1053280063E9A70E97F9FF1F938949F983A7090233
:10533800B1CB03A58A0083A749026395A7068947CD
:105348006393F408C147E310F4FC17F5FF1F0355F6
:1053580025FD9147130505FC3345F50293172500F4
:1053680003A509022286CA853E959307A005230056
:10537800F500A3009500110597C0FF1FE78080DEA8
:10538800014559B79305E00417F5FF1F035545F983
:1053980097D0FF1FE78000BB97F7FF1F23A0A7F454
:1053A80049F995B783A74A0303A6090297F5FF1F92
:1053B80083D505F78981829783A78A0017F7FF1F8E
:1053C8002320F7F2ADBF8D47639EF400C147E31C6D
:1053D800F4F217F5FF1F0355A5F4130545FD937760
:1053E800C5FFBDBF9147639AF400E31E94F017F51B
:1053F800FF1F0355E5F22115DDB7C147E395F4F02A
:10540800A147E3E287F017F5FF1F035565F1411542
:10541800F9B79307F00663EAA706930705FE19474D
:10542800B3C7E70217F7FF1F035787EF17FAFF1FE6
:10543800130ACAE8B387E702BE9983270A02A9CFED
:1054480083274A02639A370703250A0291461308FD
:10545800A005FD5593D72600C207C18313972700DF
:105468002A9703460700631D06078348170003565B
:10547800270063959806B306D64063CF8604850750
:105488008A072286CA853E95C5BD9307E007E3ECE7
:10549800A7E6930705F979B79305E00417F5FF1F09
:1054A800035505E897D0FF1FE780C0A997F7FF1FAE
:1054B80023A6A7E251F581BD83A74A0303260A0262
:1054C80097F5FF1F83D5C5E589814E85829797F7A4
:1054D800FF1F23A737E18DBFA300B700B2869DBF8A
:1054E800B385860017F6FF1F035686E3910513065A
:1054F80006FCE3FAC5E0130634001376C60F11065E
:10550800B29623000701A30097002311D70085BF97
:1055180097F7FF1F938787DA9453BE89A1C203A523
:10552800090291461308A005FD5593D72600C20726
:10553800C183139727002A970346070063160605B9
:10554800834817000356270063989800B306D6408F
:10555800E3D786F2A300B700B286C1BF8357C7005E
:1055680017F5FF1F0345E5DB9305E0043305F50256
:105578004205418197D0FF1FE780C09C97F7FF1F26
:1055880023AEA7D449FD41B317F6FF1F035646D9EA
:1055980097F5FF1F83C5E5D8B385C5023386860016
:1055A8001106E3E2C5D681BF01458280011106CE0E
:1055B8002EC6EF70706701C9B245F2400355250049
:1055C80005616FC0E002F240494505618280A38E03
:1055D8000186238E018623A2018623A4018623A6A1
:1055E800018623A8018623A0018623AE018497F7AC
:1055F800FF1F938767D9930640382391D702F17626
:105608001307400B938606B82391E7002392D7022D
:1056180011679D46130600059305000A1305007DD2
:105628002392E7002393D70241478546130810F8D1
:105638002395E7002396E7002399E700239AE700DC
:10564800239BE700239CE7002394E70223960703A4
:10565800239007002393B7002394B7002397C7002C
:105668002398C700239DA700239E0700239F0700B8
:10567800239007022395D702239707021308F00700
:10568800239807022392E7042393E704239FE70460
:105698002390E7062391E7062392E7062399070359
:1056A8001307C01C239AD702239BD702239C070207
:1056B800239D0702239E0702239F070223900704C6
:1056C8002391D70423940704239507042396D7042A
:1056D8002397C7042398C7042399A704239A070488
:1056E800239B0704239C0704239DC704239EC70408
:1056F8002393A706239407062395070623960706F0
:105708002397B7062398B70623990706239AE7062F
:105718005147239DE7067D57239B0706239C0706D1
:10572800239ED706239F070623900708239107087F
:105738002392E7088280011126CAAA84214522CC37
:1057480006CE2E8432C636C43AC2EFE07F8B1DC91E
:10575800A24612473246930700FD2300F5009947F9
:10576800A30095002301F5002303D500A303E5005A
:105778002312C500AA8522856244F240D2440561FD
:105788006FE07F93F2406244D2440561828023A295
:10579800A186828023A4A186828023A6A1868280F6
:1057A80023A8A1868280011122CC4AC806CE26CA27
:1057B8002A890144B30489006368B400F240624452
:1057C800D2444249056182802EC6EFE01FA8931794
:1057D8000501C183A183B2452380F4009307140017
:1057E80093F7F70F850463F9B700CA970904238074
:1057F800A7001374F40F7DBF3E847DBFC16717F502
:10580800FF1F0355C5B6FD176304F502411117F6CE
:10581800FF1F034666CB9385418706C6EF70D01EEF
:10582800B240FD5717F7FF1F2313F7B441018280D9
:10583800828009C925151375F50F1335850E134593
:10584800150082800145828023900500C9C67971C0
:1058580022D426D24ECE52CC5AC806D64AD056CAE0
:105868005EC63684328AAE892A8B814463F3440744
:10587800B307940083C70700138914004209939A59
:10588800070193DA0A011359090163840A04CA97C4
:105898006341FA04B307240183CB07005E85513FB7
:1058A8000DC99387FAFF2390F90063906B031305E2
:1058B80019002295B250225492540259F249624A70
:1058C800D24A424BB24B45618280D694C204C18011
:1058D80071BF0145C5B701458280411126C2AE841A
:1058E80022C497F7FF1F23ABC7A897F7FF1F23A56D
:1058F800B7A897F7FF1F23AFA7A62A8441469305A9
:10590800F00F26854AC006C6054997C0FF1FE780E5
:1059180000936310250597F7FF1F9387E7A4884B2B
:10592800C145513541469305F00F228597C0FF1FA9
:10593800E780E090854463189502224497F7FF1F9B
:10594800938787A2B24092440249C847C1454101A2
:1059580099BD41468145268597C0FF1FE780208E67
:10596800E31225FD4DBF41468145228597C0FF1FA3
:10597800E780E08CE30395FCB2402244924402495C
:1059880041018280411122C426C22E84AA841306B2
:105998000002814517F5FF1F1305059D06C697B040
:1059A800FF1FE780A07F97F7FF1FA380979C97F7BB
:1059B800FF1F238D87B0EFB0B045854719C18147D8
:1059C8004945B240224417F7FF1F230FF798924426
:1059D80041018280814781CD19C98547631BF50044
:1059E80083C7550093E707FCA382F50085473E85EA
:1059F800828089476317F50083C7550093F7F7033B
:105A0800E5B70D478547E314E5FE03C7550013774F
:105A1800F70313670704A382E500D1BF81478DC14F
:105A280005C103C755009306000C85471377070C7B
:105A38006308D700930600048D476303D70089479E
:105A48003E858280411122C4005D06C626C21DC85B
:105A5800AA84085009C597C0FF1FE780C05B48505B
:105A680009C597C0FF1FE780005B085409C597C0A8
:105A7800FF1FE780405A228597C0FF1FE780A05983
:105A880023AC0402B240224492444101828009EDD1
:105A980097F7FF1F83C7678D17F5FF1F1305458EFF
:105AA80081CB13854185828017F5FF1F1305458D2E
:105AB800828017F5FF1F0345458B828097F7FF1FEC
:105AC8009387878AC847828097F7FF1F9387C7897C
:105AD800884B828097F7FF1F93870789DC4B8843A1
